{
  "_format": "hh-sol-artifact-1",
  "contractName": "BuyMeACoffee",
  "sourceName": "contracts/BuyMeACoffee.sol",
  "abi": [
    {
      "inputs": [],
      "stateMutability": "nonpayable",
      "type": "constructor"
    },
    {
      "inputs": [],
      "name": "BuyMeACoffee__NotOwner",
      "type": "error"
    },
    {
      "anonymous": false,
      "inputs": [
        {
          "indexed": true,
          "internalType": "address",
          "name": "from",
          "type": "address"
        },
        {
          "indexed": false,
          "internalType": "uint256",
          "name": "timestamp",
          "type": "uint256"
        },
        {
          "indexed": false,
          "internalType": "string",
          "name": "name",
          "type": "string"
        },
        {
          "indexed": false,
          "internalType": "string",
          "name": "message",
          "type": "string"
        }
      ],
      "name": "NewMemo",
      "type": "event"
    },
    {
      "inputs": [
        {
          "internalType": "string",
          "name": "_name",
          "type": "string"
        },
        {
          "internalType": "string",
          "name": "_message",
          "type": "string"
        }
      ],
      "name": "buyCoffee",
      "outputs": [],
      "stateMutability": "payable",
      "type": "function"
    },
    {
      "inputs": [],
      "name": "getBalanceAccount",
      "outputs": [
        {
          "internalType": "uint256",
          "name": "",
          "type": "uint256"
        }
      ],
      "stateMutability": "view",
      "type": "function"
    },
    {
      "inputs": [],
      "name": "getMemos",
      "outputs": [
        {
          "components": [
            {
              "internalType": "address",
              "name": "from",
              "type": "address"
            },
            {
              "internalType": "uint256",
              "name": "timestamp",
              "type": "uint256"
            },
            {
              "internalType": "string",
              "name": "name",
              "type": "string"
            },
            {
              "internalType": "string",
              "name": "message",
              "type": "string"
            }
          ],
          "internalType": "struct BuyMeACoffee.Memo[]",
          "name": "",
          "type": "tuple[]"
        }
      ],
      "stateMutability": "view",
      "type": "function"
    },
    {
      "inputs": [],
      "name": "withdrawTips",
      "outputs": [],
      "stateMutability": "nonpayable",
      "type": "function"
    }
  ],
  "bytecode": "0x608060405234801561001057600080fd5b50336000806101000a81548173ffffffffffffffffffffffffffffffffffffffff021916908373ffffffffffffffffffffffffffffffffffffffff160217905550610b9d806100606000396000f3fe60806040526004361061003f5760003560e01c8063204206e1146100445780633aaa74b214610060578063865c517214610077578063abf038d0146100a2575b600080fd5b61005e6004803603810190610059919061064f565b6100cd565b005b34801561006c57600080fd5b50610075610255565b005b34801561008357600080fd5b5061008c61033a565b604051610099919061087c565b60405180910390f35b3480156100ae57600080fd5b506100b761051d565b6040516100c491906108be565b60405180910390f35b60003411610110576040517f08c379a00000000000000000000000000000000000000000000000000000000081526004016101079061089e565b60405180910390fd5b600160405180608001604052803373ffffffffffffffffffffffffffffffffffffffff16815260200142815260200184815260200183815250908060018154018082558091505060019003906000526020600020906004020160009091909190915060008201518160000160006101000a81548173ffffffffffffffffffffffffffffffffffffffff021916908373ffffffffffffffffffffffffffffffffffffffff1602179055506020820151816001015560408201518160020190805190602001906101df92919061053c565b5060608201518160030190805190602001906101fc92919061053c565b5050503373ffffffffffffffffffffffffffffffffffffffff167fc56140e05f516509ae28110e0f72e17558a7561630dad2647c3ae87d986e365c428484604051610249939291906108d9565b60405180910390a25050565b60008054906101000a900473ffffffffffffffffffffffffffffffffffffffff1673ffffffffffffffffffffffffffffffffffffffff163373ffffffffffffffffffffffffffffffffffffffff16146102da576040517f1022f53800000000000000000000000000000000000000000000000000000000815260040160405180910390fd5b60008054906101000a900473ffffffffffffffffffffffffffffffffffffffff1673ffffffffffffffffffffffffffffffffffffffff166108fc479081150290604051600060405180830381858888f1935050505061033857600080fd5b565b60606001805480602002602001604051908101604052809291908181526020016000905b8282101561051457838290600052602060002090600402016040518060800160405290816000820160009054906101000a900473ffffffffffffffffffffffffffffffffffffffff1673ffffffffffffffffffffffffffffffffffffffff1673ffffffffffffffffffffffffffffffffffffffff168152602001600182015481526020016002820180546103f190610a58565b80601f016020809104026020016040519081016040528092919081815260200182805461041d90610a58565b801561046a5780601f1061043f5761010080835404028352916020019161046a565b820191906000526020600020905b81548152906001019060200180831161044d57829003601f168201915b5050505050815260200160038201805461048390610a58565b80601f01602080910402602001604051908101604052809291908181526020018280546104af90610a58565b80156104fc5780601f106104d1576101008083540402835291602001916104fc565b820191906000526020600020905b8154815290600101906020018083116104df57829003601f168201915b5050505050815250508152602001906001019061035e565b50505050905090565b60003373ffffffffffffffffffffffffffffffffffffffff1631905090565b82805461054890610a58565b90600052602060002090601f01602090048101928261056a57600085556105b1565b82601f1061058357805160ff19168380011785556105b1565b828001600101855582156105b1579182015b828111156105b0578251825591602001919060010190610595565b5b5090506105be91906105c2565b5090565b5b808211156105db5760008160009055506001016105c3565b5090565b60006105f26105ed84610943565b61091e565b90508281526020810184848401111561060e5761060d610b1e565b5b610619848285610a16565b509392505050565b600082601f83011261063657610635610b19565b5b81356106468482602086016105df565b91505092915050565b6000806040838503121561066657610665610b28565b5b600083013567ffffffffffffffff81111561068457610683610b23565b5b61069085828601610621565b925050602083013567ffffffffffffffff8111156106b1576106b0610b23565b5b6106bd85828601610621565b9150509250929050565b60006106d383836107f4565b905092915050565b6106e4816109da565b82525050565b60006106f582610984565b6106ff81856109a7565b93508360208202850161071185610974565b8060005b8581101561074d578484038952815161072e85826106c7565b94506107398361099a565b925060208a01995050600181019050610715565b50829750879550505050505092915050565b600061076a8261098f565b61077481856109b8565b9350610784818560208601610a25565b61078d81610b2d565b840191505092915050565b60006107a38261098f565b6107ad81856109c9565b93506107bd818560208601610a25565b6107c681610b2d565b840191505092915050565b60006107de601a836109c9565b91506107e982610b3e565b602082019050919050565b600060808301600083015161080c60008601826106db565b50602083015161081f602086018261085e565b5060408301518482036040860152610837828261075f565b91505060608301518482036060860152610851828261075f565b9150508091505092915050565b61086781610a0c565b82525050565b61087681610a0c565b82525050565b6000602082019050818103600083015261089681846106ea565b905092915050565b600060208201905081810360008301526108b7816107d1565b9050919050565b60006020820190506108d3600083018461086d565b92915050565b60006060820190506108ee600083018661086d565b81810360208301526109008185610798565b905081810360408301526109148184610798565b9050949350505050565b6000610928610939565b90506109348282610a8a565b919050565b6000604051905090565b600067ffffffffffffffff82111561095e5761095d610aea565b5b61096782610b2d565b9050602081019050919050565b6000819050602082019050919050565b600081519050919050565b600081519050919050565b6000602082019050919050565b600082825260208201905092915050565b600082825260208201905092915050565b600082825260208201905092915050565b60006109e5826109ec565b9050919050565b600073ffffffffffffffffffffffffffffffffffffffff82169050919050565b6000819050919050565b82818337600083830152505050565b60005b83811015610a43578082015181840152602081019050610a28565b83811115610a52576000848401525b50505050565b60006002820490506001821680610a7057607f821691505b60208210811415610a8457610a83610abb565b5b50919050565b610a9382610b2d565b810181811067ffffffffffffffff82111715610ab257610ab1610aea565b5b80604052505050565b7f4e487b7100000000000000000000000000000000000000000000000000000000600052602260045260246000fd5b7f4e487b7100000000000000000000000000000000000000000000000000000000600052604160045260246000fd5b600080fd5b600080fd5b600080fd5b600080fd5b6000601f19601f8301169050919050565b7f63616e27742062757920636f6666656520666f7220667265652100000000000060008201525056fea2646970667358221220a899a7ee58bcc89f985a3ada21e452e29a0dd436f19d7d2b60e06bb7a3ccd39964736f6c63430008070033",
  "linkReferences": {},
  "deployedLinkReferences": {}
}